:020000040800F2
:10000000E8D700208D780008CD070008CF0700084A
:10001000D3070008D7070008DB070008000000002E
:10002000000000000000000000000000DF070008E2
:10003000E107000800000000E3070008E5070008EA
:10004000A7780008A7780008A7780008A778000814
:10005000A7780008A77800081F0B0008A7780008F9
:100060004B0B0008750B00089F0B0008A7780008D1
:10007000A7780008A7780008A7780008A7780008E4
:10008000A7780008A7780008A7780008A7780008D4
:10009000A7780008A7780008A7780008C90B00080F
:1000A000A7780008A7780008A7780008A7780008B4
:1000B00027E10008A7780008A7780008A7780008BB
:1000C000A7780008A7780008A7780008A778000894
:1000D000A7780008E7760008FD770008A7780008F1
:1000E000A7780008A7780008A7780008A778000874
:1000F000A7780008A7780008A7780008A778000864
:10010000A7780008A7780008A7780008A778000853
:10011000A7780008A7780008A7780008A778000843
:10012000A7780008A7780008A7780008A778000833
:10013000DFF80CD012F084F9004800473F040008B3
:10014000E8D70020F0B5A3B04FF4A076F027F94827
:10015000007800287ED0012001F09AFC012879D196
:10016000042001F0B6FE01F012FD1222F2A1F548C2
:100170000BF0E7FAF44908700846007800286AD1C5
:1001800044F64250ADF844004220CDF84E00DDF870
:100190004E1006FB07F001EB4000CDF846000020B2
:1001A000ADF84A00ADF84C002820CDF85200CDF84B
:1001B0005660CDF85A70012111A841831021818326
:1001C0000321CDF8621006FB07F04100CDF8661060
:1001D0000021CDF86A10CDF86E10CDF87610CDF86C
:1001E00072104FF47840CDF87A004FF4FC61CDF8EE
:1001F0007E101F21CDF8821011A80FC80FF0A8F9AA
:1002000018220DF16201684611F058FC28220DF108
:10021000520107A811F052FC07A80FC80FF0A7F968
:10022000CA4B422211A9C7480BF03FFCC6490870CF
:100230000020C74908601020C6490860091F0860EF
:10024000091D08600120C449C1F8B8011020C14946
:10025000091F01E061E054E0086000244FE0002540
:1002600048E01020BB490860BC488068C0B22290BA
:100270001020091F0860BDF888004FF6FF7101EAE1
:10028000002022901020B3490860B4488068C0B2B2
:10029000BDF88810084322901020AE49091F08605D
:1002A000AF480088844216DDAE480088844212DAE6
:1002B000AD48008885420EDDAC48008885420ADAE8
:1002C000A24B022222A99F480BF0EFFBBDF8880049
:1002D000A74908800CE04FF6FF7022909B4B02224A
:1002E00022A998480BF0E1FBBDF88800A0490880DE
:1002F000681C85B2B5F5A07FB3DB601C84B2F02C1E
:10030000ADDB90480BF040FD40F6B83007F063F9E4
:1003100000208849087001F0DCFD8648007800283C
:100320007ED0042001F0D5FD01F031FC0020884989
:100330000860102087490860091F0860091D0860CF
:1003400001208549C1F8B80110208249091F0860C1
:1003500000246BE0002562E081480088844207D1D8
:1003600081480088854203DD80480088854223DB80
:100370007C480088844207D17B480088854203DDA1
:100380007A480088854217DB77480088854207D184
:1003900073480088844203DD7248008884420BDB86
:1003A00072480088854215D16D480088844211DD6D
:1003B0006C48008884420DDA102066490860091FE5
:1003C0000860091D0860091F08604FF478406849FB
:1003D000088022E010205F49086060488068C0B251
:1003E00022901020091F0860BDF888004FF6FF71A9
:1003F00001EA002022901020564908605748806882
:10040000C0B2BDF888100843229010205149091F3E
:100410000860BDF8880056490880681C85B200E075
:100420000BE0B5F5A07F97DB601C84B2F02C91DB6C
:1004300000204049087001F04CFD23B0F0BD88B0A9
:10044000002602274FF002084FF00209B2460025AD
:10045000002400BFA34607F081F84FF4165007F0C0
:10046000F6F84FF4E13007F07BF902F00FF901F0F4
:10047000F5FA002009F04DFC0CF0FAFE3D48016849
:1004800000200BF04BF910F075F800BF06F0B4FD3A
:100490000028FBD14FF478403749088037A010215D
:1004A0000B46C822CDE90010D2213C2005F030FFD8
:1004B000304606F043FE78B206F0C9FE4FFA88F0E7
:1004C00006F0D9FE4FFA89F006F006FF504606F016
:1004D00014FF0022F0214FF4A07006F06DFF002001
:1004E0001B49091D086001F06AFA00F0F5FA0020C6
:1004F00002F09AF80AE100BFFFF724FE012001F0A4
:10050000C7FA022844D1002002F08EF801211F48CA
:100510004088CDE900011D4803880022114606A04D
:1005200010F0F5F841F2883007F055F8002002F09D
:100530007BF8EBE028000020303A74657374312EAC
:10054000626D7000F803002000000020040000200D
:10055000B8012442140C0140000024420010014064
:100560000A0000200E000020080000200C000020DF
:100570000008006CB80100202A0000205379737431
:10058000656D20496E69742E2E2E0000A217002082
:10059000012001F07DFA03286DD14FF6FF7002F0C3
:1005A00043F85BA010210B46C822CDE90010D221F0
:1005B0003C2005F0ADFE59A1AFF2840000F040FBF5
:1005C000002002F031F8012157484088CDE90001B0
:1005D000554803880022114650A010F098F841F2C7
:1005E000883006F0F8FF4FF6FF7002F01DF84FA0BC
:1005F00010210B46C822CDE90010D2213C2005F085
:1006000087FE50A000F006FE039052A000F002FE0C
:10061000049054A000F0FEFD059056A000F0FAFDF5
:10062000069058A000F0F6FD0790DDE9030101EB0C
:10063000810100EB4100059901EBC10202EB0111C0
:1006400000EB8100069901EB4102C2EBC11100EB06
:10065000C10140F271220798504301EB00104D494F
:100660000880084601884CA011F028FF4FF6FF7063
:1006700001F0DAFF4AE0012001F00AFA042837D13C
:1006800000BF4448008801F0B5F840F6B83006F0E5
:10069000A2FF45A011F012FF1EE04748015D47A0F0
:1006A00011F00CFF601E4449085C4F2803D0601E07
:1006B000085C6F280ED14048005D4B2803D03E48AF
:1006C000005D6B2806D14FF0010B00203C490880EB
:1006D000002405E0601CC4B2394800888442DCDB99
:1006E00000BF38A011F0EAFEBBF1000FC9D00DE049
:1006F000681CC5B20F2D08D100253348006808B921
:10070000012000E000203049086000BFF3E600004F
:1007100047726179696E672E2E2E0000303A74653B
:100720007374322E626D7000A2170020496D6167EC
:1007300065205265636F676E6974696F6E2E2E2E29
:1007400000000000303A504943532F302E626D7044
:1007500000000000303A504943532F312E626D7033
:1007600000000000303A504943532F322E626D7022
:1007700000000000303A504943532F332E626D7011
:1007800000000000303A504943532F342E626D7000
:100790000000000010000020CAB6B1F0BDE1B9FBB6
:1007A0003A25640D0A00000073656E64207374615D
:1007B0007475733A0000000078280020256300005B
:1007C0003E0000200D0A000094812142704700BFC6
:1007D000FEE700BFFEE700BFFEE700BFFEE7704791
:1007E00070477047704700000CB5002001900090E2
:1007F0006C48006840F480306A49086000BF69486E
:10080000006800F4003000900198401C01900098AE
:1008100018B90198B0F5A06FF1D16248006800F4F2
:10082000003010B10120009001E0002000900098FD
:10083000012843D15C48006840F010005A49086024
:100840000846006820F0030008600846006840F091
:1008500002000860534840685249486008464068B2
:1008600048600846406840F4806048600846406838
:1008700020F47C1048600846406840F4E810486066
:100880000846006840F08070086000BF4548006876
:1008900000F000700028F9D04248406820F00300C2
:1008A000404948600846406840F00200486000BF88
:1008B0003C48406800F00C000828F9D10CBD10B588
:1008C000FFF792FF10BD10B53648006840F00100F8
:1008D0003449086008464068344908403149486056
:1008E00008460068324908402E49086008460068FA
:1008F00020F4802008600846406820F4FE0048602C
:100900004FF41F008860FFF7DAFF4FF000602949BD
:10091000086010BD10B5002100200022214B5B684B
:1009200003F00C0121B1042906D0082928D107E0E1
:10093000214B224C236027E01F4B204C236023E0F7
:10094000184B5B6803F47010164B5B6803F480323D
:10095000022303EB904022B9194B4343174C236009
:100960000DE0104B5B6803F4003323B1144B434399
:10097000124C236003E0104B4343104C236003E010
:100980000D4B0E4C236000BF00BF064B5B68C3F3EA
:1009900003130C4CE15C094B1B68CB40074C2360F4
:1009A00010BD000000100240002002400000FFF8CF
:1009B000FFFFF6FE08ED00E000127A0014000020B0
:1009C00000093D00180000200EB50121442007F069
:1009D000FFFD0221042007F055FC042001900020B7
:1009E0008DF808000C208DF8090001208DF80A0010
:1009F00001A809F0F7F80321042007F043FC0820C0
:100A0000019000208DF808000C208DF809000120CD
:100A10008DF80A0001A809F0E5F80421084607F05E
:100A200031FC1020019000208DF808000C208DF87A
:100A3000090001208DF80A0001A809F0D3F800216F
:100A4000084607F01FFC0120019000208DF80800E7
:100A500008208DF8090001208DF80A0001A809F08E
:100A6000C1F806208DF8000002208DF80100032057
:100A70008DF8020001208DF80300684606F01DFF86
:100A800008208DF8000002208DF801008DF802008A
:100A900001208DF80300684606F00FFF09208DF84D
:100AA000000002208DF8010001208DF802008DF871
:100AB0000300684606F001FF0A208DF800000220BE
:100AC0008DF8010000208DF8020001208DF8030050
:100AD000684606F0F2FE0EBD0EB50821002007F0B4
:100AE000D1FB4FF48070019000208DF808000820A1
:100AF0008DF8090001208DF80A0001A809F072F8AC
:100B000017208DF8000000208DF801008DF80200FC
:100B100001208DF80300684606F0CFFE0EBD10B52B
:100B20000A2006F058FD01213E4807F028FB012865
:100B300007D13D48006808B9012000E000203A498B
:100B40000860012009F0C5F810BD10B50A2006F0B4
:100B500042FD0421354807F012FB38B934480068DB
:100B600008B9012000E0002031490860042009F0A4
:100B7000B0F810BD10B50A2006F02DFD08212B4855
:100B800007F0FDFA38B92848006808B9012000E0EC
:100B9000002025490860082009F09BF810BD10B519
:100BA0000A2006F018FD1021204807F0E8FA38B9AD
:100BB0001F48006808B9012000E000201C490860B7
:100BC000102009F086F810BD10B54FF4807009F0C0
:100BD0006FF8012820D11748007802281CDA154840
:100BE000007850B900201449086001201349C1F869
:100BF00098010F490839086009E000200C490839BC
:100C000008600E49C1F8980101200B4908600948A5
:100C10000078401C074908704FF4807009F059F8BB
:100C200010BD00000008014094012342001801405B
:100C30009481214228000020988122420080224293
:100C40002DE9F34F93B00746002011900D9000BF9F
:100C500003223946FE480AF074FD0C901322FD4829
:100C600014990AF06EFD06460C980028F0D1002E6B
:100C7000EED111AB4222F849F5480AF028FE11AB3B
:100C80004222F549F3480AF010FFF348C08A80B2C7
:100C90000E90F148408A80B20F90002559E04FF045
:100CA000000851E011AB022210A9E9480AF00FFE3A
:100CB000BDF840004FEAD029BDF84000C0F3841AC7
:100CC000BDF8400000F01F0B584611F099F9E34AB7
:100CD000E34BCDE9040111F09CF8CDE90801504641
:100CE00011F08EF9DF4AE04BCDE9000111F091F8E7
:100CF000CDE90401484611F083F9DC4ADC4BCDE92B
:100D0000000111F086F8CDE90201DDE9042310F0BD
:100D1000D9FFCDE90601DDE9082310F0D3FFCDE9C5
:100D20000A0111F0ADF9C4B2E00200EB84102044D6
:100D300080B2109011AB022210A9C6480AF0B5FE8D
:100D400008F101001FFA80F80E988045AADB681CA4
:100D500085B20F988542A2DBBE480BF015F8BC485F
:100D60000BF012F815B0BDE8F08F2DE9F34F9BB0F2
:100D700000201A90169012901190834610900F90B8
:100D80000E9000BF00BF00BF00210F46884600BF85
:100D90000322AF481B990AF0D4FC15901322AD48EA
:100DA0001C990AF0CEFC14900B22B2A1B5480AF0AF
:100DB000C8FC139015980028EAD114980028E7D1B0
:100DC00013980028E4D11AAB4222A349A0480AF0A4
:100DD0007EFD1AAB4222A0499E480AF066FE9E485C
:100DE000C08A80B217909C48408A1FFA80FA1798F0
:100DF00000FB0AF01290002419E04FF0000912E005
:100E00001AAB022219A992480AF061FDBDF86400EC
:100E100000F01F0018901AAB012218A999480AF097
:100E200044FE09F1010917988145E9D3641C544532
:100E3000E3D3002479E04FF000091FE049469148D0
:100E40000AF0F4FF1AAB012218A98E480AF03FFD00
:100E50009DF86000A04208D91098401C10909DF8A1
:100E600060100E9808440E9006E00BF1010B9DF8FF
:100E700060100F9808440F9009F1010912988145FC
:100E8000DCD3BBF1000F02D10020014605E00F9832
:100E900090FBFBF0099011F0A2F8CDE90C0110983D
:100EA00010B90020014606E010990E9890FBF1F071
:100EB000099011F094F8CDE90A01DDE90A23DDE992
:100EC0000C0110F0A0FFCDE90601DDE90A23DDE900
:100ED0000C0110F098FFCDE9020110990BFB01F015
:100EE00011F07DF8CDE90001DDE9022310F091FF5A
:100EF000CDE90401DDE9062310F08BFFCDE90801FF
:100F000011F0D7F80E460546781B78EB060002DA9A
:100F10002F46B04611944FF0000B002010900F9018
:100F20000E9000BF00BF00BF641CFF2C83D90021BE
:100F300054480AF07BFF00241FE04FF0000918E03E
:100F40001AAB012218A94F480AF0C1FC9DF86010A5
:100F50001198814202DA0020199002E04FF6FF70EA
:100F600019901AAB022219A93A480AF09EFD09F11C
:100F7000010917988145E3D3641C5445DDD33548F6
:100F80000AF002FF32480AF0FFFE3E480AF0FCFE7B
:100F90001DB0BDE8F08F2DE9F34F8FB04FF0000A80
:100FA000D34600BF00BF00210E460F4602910391B9
:100FB0000020019000BF05E0202004A901F80A00EC
:100FC0000AF1010ABAF11E0FF6DB4FF0000A00BF6A
:100FD0000CAB01220DA90F980AF079FC0C9801289E
:100FE00000D017E09DF834000A2803D09DF83400A3
:100FF0000D2800D10DE09DF8340004A901F80A0085
:1010000004A810F80A00202800D103E00AF1010A20
:1010100000BFDDE700BF4FF0000A9DF810002D284B
:101020007BD14FF0010A39E004A911F80A10A1F1AF
:10103000300010F0D4FF804689460022124B304623
:10104000394610F0E6FE06460F4642464B461DE086
:10105000200600204808002060170020C976BE9FA7
:101060001A2FBD3F62105839B4C8E23F894160E58C
:10107000D022D33F6461746166696C652E646174CB
:1010800000000000700A002000002440304639466D
:1010900010F018FE06460F460AF1010A04A810F8DF
:1010A0000A002E28C0D10AF1010A25E00198401C4F
:1010B000019004A911F80A10A1F1300010F08FFF7F
:1010C00004460D464FF0000B09E0FE4AFE4B204659
:1010D000294610F09EFE04460D460BF1010B0198C7
:1010E0008345F2DB22462B46DDE9020110F0EAFDE2
:1010F000CDE902010AF1010A04A810F80A0020282B
:10110000D4D130463946DDE9022310F0DBFD81F011
:101110000042109905C157E0FFE71AE004A911F851
:101120000A10A1F1300010F05AFF804689460022D3
:10113000E64B3046394610F06CFE06460F464246F6
:101140004B463046394610F0BDFD06460F460AF1C3
:10115000010A04A810F80A002E28DFD10AF1010ABA
:1011600025E00198401C019004A911F80A10A1F192
:10117000300010F034FF04460D464FF0000B09E03C
:10118000D04AD14B2046294610F043FE04460D4676
:101190000BF1010B01988345F2DB22462B46DDE97A
:1011A000020110F08FFDCDE902010AF1010A04A845
:1011B00010F80A002028D4D130463946DDE9022350
:1011C00010F080FD109A03C211B0BDE8F08F2DE938
:1011D000FC4106460F4614460025002130460AF021
:1011E00025FE0EE06B46012201A930460AF06FFB96
:1011F0000098012800D006E09DF80400202800D1C6
:101200006D1CA542EEDB00BF39463046FFF7C3FE3A
:10121000BDE8FC812DE9F14FB6B0002029901B906C
:1012200000BF0122AAA1AD480AF08BFA3590012235
:10123000ABA1AE480AF085FA34900122ACA1AF48C8
:101240000AF07FFA33900122ADA1B0480AF079FA92
:1012500032900B22AEA1B1480AF073FA31900B2202
:10126000AFA1B2480AF06DFA30900122B048369929
:101270000AF067FA2F900B22AEA1B1480AF061FA8A
:101280002E9035980028CCD134980028C9D13398B5
:101290000028C6D132980028C3D131980028C0D187
:1012A00030980028BDD12F980028BAD12E98002858
:1012B000B7D129AB4222A3499D480AF008FBA148B7
:1012C000D0F81690D0F812A009FB0AF028904FF041
:1012D0000A0B584610F083FE9B4A9C4BCDE90C014B
:1012E00010F097FDCDE91001289810F078FE984A8B
:1012F000984BCDE9080110F08CFDCDE90C01584662
:1013000010F06DFECDE90401584610F068FE924AD7
:10131000924BCDE9000110F07CFDCDE90201DDE941
:10132000042310F076FDCDE90801584610F057FE71
:10133000CDE90401289810F052FE894A894BCDE985
:10134000000110F066FDCDE90201DDE9042310F093
:1013500060FDCDE90601DDE9082310F0B3FCCDE91D
:101360000A01DDE90C2310F0ADFCCDE90E01DDE949
:10137000102310F0A7FC4FF066327B4BCDE9120131
:1013800010F0A0FCCDE9140111F0AEFC704A774BCF
:10139000CDE9160110F096FCCDE9180110F051FED0
:1013A0002790279E304610F01AFE0022704BCDE9A0
:1013B000120110F02EFDCDE91601279810F00FFE56
:1013C000CDE91401DDE9162310F01DFD0022694B63
:1013D000CDE9180110F092FE01D2701C00E03046F9
:1013E00006465848D0F80A1051480AF01FFD00245C
:1013F0001DE0002518E029AB04222DA94C480AF075
:1014000066FA9DF8B4002C902C9810F0F9FD3A463D
:101410004346CDE9180110F071FE04D22C9810F06B
:10142000EFFD074688466D1C5545E4D3641C4C45CA
:10143000DFD34448D0F80A103D480AF0F7FC0024F6
:101440001FE000251AE029AB04222DA938480AF034
:101450003EFA9DF8B4002C902C9810F0D1FD3A463D
:101460004346CDE9180110F046FDCDE92A0129AB2C
:1014700008222AA932480AF018FB6D1C5545E2D310
:10148000641C4C45DDD30024A7E000212A912B9158
:101490002B480AF0CBFC002573E024A90F48FFF786
:1014A0007AFD29AB082222A925480AF010FADDE9C5
:1014B0002223DDE9240110F0ACFCCDE91801DDE9BF
:1014C0002A2359E09A9999999999B93F00002440A3
:1014D000303A42502F772E74787400002006002096
:1014E000303A42502F762E7478740000480800205D
:1014F000303A42502F62312E74787400700A002006
:10150000303A42502F62322E74787400980C0020CA
:10151000303A42502F78312E64617400C00E0020A2
:10152000303A42502F78322E64617400E810002067
:1015300010130020303A42502F782E64617400005E
:101540003815002060170020A4703D0AD7A3E83F9B
:1015500052B81E85EB510440B81E85EB51B8BE3F12
:1015600085EB51B81E85DB3F6666D63FEB51E03F09
:101570000000F03F0000E03F10F0A4FBCDE92A019D
:101580006D1C2898854288D320A95F48FFF703FD8A
:10159000DDE9200181F00041CDE91201DDE92A23D6
:1015A00010F031FCCDE9140111F05CFA0022574B28
:1015B000CDE9160110F086FB02460B46CDE9180175
:1015C0000020524910F097FCCDE91E0129AB0822FA
:1015D0001EA94F480AF069FA641CB442FFF455AFE3
:1015E00000214B480AF022FC00244CE000202A9005
:1015F0002B90002146480AF019FC002518E024A988
:101600004448FFF7C8FC29AB082222A940480AF049
:101610005EF9DDE92223DDE9240110F0FAFBCDE9D2
:101620001801DDE92A2310F04DFBCDE92A016D1CDC
:10163000B542E4D320A93848FFF7ADFCDDE920012D
:1016400081F00041CDE91201DDE92A2310F0DBFB36
:10165000CDE9140111F006FA00222C4BCDE9160158
:1016600010F030FB02460B46CDE918010020274957
:1016700010F041FCCDE91E0129AB08221EA9274824
:101680000AF013FA641C5C45B0D3002123480AF029
:10169000CDFB29AB08221CA920480AF018F9012427
:1016A00012E029AB08222AA91C480AF010F9DDE94A
:1016B0001C23DDE92A0110F021FD04D2DDE92A0115
:1016C000CDE91C011B94641C5C45EAD314480AF064
:1016D0005BFB10480AF058FB0B480AF055FB0E481C
:1016E0000AF052FB0A480AF04FFB0C480AF04CFB88
:1016F0000C480AF049FB0C480AF046FB1B98C0B2A4
:1017000037B0BDE8F08F0000700A00200000F03F05
:10171000C00E002048080020980C0020E81000208F
:101720002006002010130020381500201FB50146A8
:101730002CA41DCC8DE81D001DF8010004B010BDC7
:101740002DE9F04306460F461546002412E0305DB1
:101750004FEA1018305D00F00F094046FFF7E6FF32
:1017600005F814004846FFF7E1FF6100491C685482
:10177000601CC4B2BC42EADB002005F81700BDE8DB
:10178000F0832DE9F84706460F4691464AF2010AD2
:101790004FF6FF74002515E0705D44404FF00008DF
:1017A0000BE004F0010010B18AEA640000E0601070
:1017B000044608F1010000F0FF08B8F1080FF0DB63
:1017C000681CC5B2BD42E7DBE0B28DF80000200A1C
:1017D0008DF801004A4602216846FFF7B1FFBDE8D7
:1017E000F8870000303132333435363738394142EA
:1017F0004344454630B599B00446002500BF03E098
:1018000000200CA948556D1C322DF9DB01208DF804
:10181000240046208DF8250000208DF826008DF844
:1018200027008DF8280001208DF8290002208DF86E
:101830002A00200A8DF82B00E0B28DF82C0003AAB4
:10184000092109A8FFF77CFF01AA092109A8FFF7D0
:1018500098FF62A10CA810F064F903A90CA810F07D
:101860003FF901A90CA810F03BF95FA10CA810F0FA
:1018700037F90CA95D4805F0E6FF19B030BD70B529
:1018800005460024002600BF2946584805F0DBFF26
:1018900040F6B83005F09FFE55A010F00FFE34E082
:1018A0005748015D57A010F009FE601E5449085CBE
:1018B0004F2803D0601E085C6F280DD15048005D92
:1018C0004B2803D04E48005D6B2805D1012600202F
:1018D0004D49088000241CE0601E4949085C4F28DF
:1018E00003D0601E085C6F280ED14548005D522869
:1018F00003D04348005D722806D14FF0FF36002028
:1019000041490880002404E0641C3F480088844268
:10191000C6DB00BF34A010F0D1FD002EB4D030469D
:1019200070BD70B50024002500BF38A0FFF7A7FFE9
:101930000128FAD000BF38A12C4805F084FF4FF4ED
:101940007A7005F048FE09E02D48005D612804D159
:1019500000202D490880002404E0641C2A480088E7
:101960008442F1DB00BF2DA1204805F06CFF4FF44D
:101970007A7005F030FE17E0601E2149085C4F28A0
:1019800003D0601E085C6F280DD11D48005D4B28F8
:1019900003D01B48005D6B2805D1012500201A49A2
:1019A0000880002404E0641C174800888442E3DBBC
:1019B00000BF002DBFD01AA010F080FD70BD10B583
:1019C0000024FFF7AEFF00BF1CA0FFF758FF401C2C
:1019D0000028F9D01BA010F071FD10BD41542B4E12
:1019E0004D47533D31312C000D0A000000440040AA
:1019F00073656E64207374617475733A000000003F
:101A000078280020256300003E00002041542B452B
:101A10004E544D0D0A0000002B2B2B0061000000DE
:101A20004E42C4A3BFE9BDF8C8EBC1D9CAB1D6B80C
:101A3000C1EEC4A3CABD2E2E2E0D0A0041542B5A4E
:101A40000D0A00004E42C4A3BFE9D6D8D0C2C6F4E6
:101A5000B6AFB3C9B9A62E2E2E0D0A0008B50121C6
:101A6000442006F0B5FD1C20ADF8000048208DF89C
:101A700003006946354806F0EFFA0120ADF8000092
:101A800028208DF803006946314806F0E5FA08BDC4
:101A900010B5044614B101202E4908702D48007875
:101AA000002837D01021294806F069FB78B10821B9
:101AB000264806F064FB50B10421244806F05FFB81
:101AC00028B10121224806F05AFB012822D10A2020
:101AD00005F081FD00201F49087010211B4806F009
:101AE0004EFB08B9012010BD0821184806F047FB3D
:101AF00008B90220F7E70421144806F040FB08B9B2
:101B00000320F0E70121124806F039FB01281BD120
:101B10000420E8E710210D4806F031FB012813D11D
:101B200008210A4806F02BFB01280DD104210748A3
:101B300006F025FB012807D10121054806F01FFB0F
:101B400010B90120034908700020CCE700180140BB
:101B50000008014029000020FE4908807047FD4927
:101B6000891C08807047FB48801C00887047F94A30
:101B70001080921C1180704710B504462046FFF774
:101B8000EBFF052005F003FDFFF7EDFF10BDF24868
:101B90000089F04908807047EE49891C0880704729
:101BA00030B5014601F01F04C1F34513CA0AE5022E
:101BB00005EB43151544A8B230BD00BF0100A0F1EC
:101BC0000102D0B2FAD1704710B503460C46E24884
:101BD000808849F24131884205D0DF48808845F24B
:101BE0001031884214D1DC494889FFF7B5FF18123B
:101BF000FFF7B5FFD8B2FFF7B2FFD7498889FFF7E3
:101C0000ABFF2012FFF7ABFFE0B2FFF7A8FF5DE0EC
:101C1000D148808846F6040188421DD1CE4880799B
:101C2000012804D1CC480088401EC01A83B2CA499A
:101C30004889FFF791FF1812FFF791FFD8B2FFF71D
:101C40008EFFC5498889FFF787FF2012FFF787FFBE
:101C5000E0B2FFF784FF39E0BF48808845F21051B9
:101C6000884220D1BC494889FFF776FF1812FFF758
:101C700076FFB9494989491C88B2FFF76DFFD8B290
:101C8000FFF76DFFB4498889FFF766FF2012FFF761
:101C900066FFB1498989491C88B2FFF75DFFE0B250
:101CA000FFF75DFF12E0AC488079012804D1AA4813
:101CB0000088401EC01A83B2A74948891946FFF719
:101CC00056FFA54988892146FFF751FF10BD2DE930
:101CD000F04105460E4600240027A0469E48008895
:101CE000A84203DD9C484088B04202DC0020BDE8E9
:101CF000F08131462846FFF767FF9748808849F210
:101D0000413188420BD09448808846F604018842CD
:101D100005D09148808845F21031884203D12E20A9
:101D2000FFF71AFF0DE08C48808845F21051884279
:101D300004D14FF43850FFF70FFF02E02220FFF7E5
:101D40000BFF8548808849F22031884202D1022069
:101D5000FFF733FF7F48801C008800B10024022079
:101D6000FFF72BFF7B48801C04887B48808849F262
:101D7000413188420BD07848808845F21031884242
:101D800005D07548808845F2105188420CD1022058
:101D9000FFF713FF6F48801CB0F80080E7B24FF6E2
:101DA000FF7000EA072708E06B48808846F60401C8
:101DB000884202D16748801C04886748808849F2BD
:101DC0002531884216D06448808844F235518842D3
:101DD00010D061488088091F88420BD05E488088F7
:101DE00048F68911884205D05B4880884BF205513E
:101DF000884201D120467AE75748808849F241312C
:101E000088420BD05448808845F21031884205D072
:101E10005148808845F21051884207D1E012C00233
:101E2000B91240EA411040EAE82060E72046FFF797
:101E3000B7FE5CE700B54848808849F241318842E6
:101E40000BD04548808846F60401884205D04248B8
:101E5000808845F21031884203D12920FFF77CFEAB
:101E60000FE03D48808845F21051884204D14FF47C
:101E70002450FFF771FE04E040F273110720FFF7D2
:101E800076FE00BD00B53448808849F24131884271
:101E90000BD03148808846F60401884205D02E4890
:101EA000808845F21031884203D12820FFF754FE84
:101EB0000EE02948808845F21051884204D14FF441
:101EC0002050FFF749FE03E000210720FFF74FFEF7
:101ED00000BD70B50446002300261F488079012804
:101EE0001ED11D48808846F60401884218D0082C6F
:101EF00015D2DFE804F00406080A0C0E10120624BE
:101F00000DE007240BE0042409E0052407E0012488
:101F100005E0002403E0032401E0022400BF00BF29
:101F20000D48808849F24131884211D00A488088A2
:101F300046F6040188420BD00748808845F21031EC
:101F4000884205D00448808845F2105188427CD1EF
:101F5000082C03E0FE07006CA21700201CD2DFE86B
:101F600004F00406090C0F12151800BF14E043F02A
:101F7000800311E043F040030EE043F0C0030BE0A8
:101F800043F0200308E043F0600305E043F0A003C2
:101F900002E043F0E00300BF00BFFC48808845F248
:101FA0001051884202D14FF4585600E03626F748C7
:101FB000808845F21031884207D0F448808845F285
:101FC0001051884201D043F00803F048808846F65B
:101FD0000401884201D143F0020319463046FFF75D
:101FE000C6FD03F0200018B9E848807901280DD11A
:101FF000E6480088E5494988884214DAE3480588BC
:102000004088E2490880084645800CE0DF480088A7
:10201000DE494988884206DDDC4805884088DB497E
:10202000088008464580D948808845F2105188428A
:1020300054D1D6494889FFF78FFD0020FFF78FFD67
:10204000D2494989491C88B200E076E0FFF784FD57
:102050000020FFF784FDCD494989891C88B2FFF72C
:102060007BFDCA490988491EC1F30F20FFF777FDA0
:10207000C6494989C91C88B2FFF76EFDC349097872
:10208000491EC8B2FFF76BFDC0498889FFF764FDA0
:102090000020FFF764FDBD498989491C88B2FFF71C
:1020A0005BFD0020FFF75BFDB8498989891C88B278
:1020B000FFF752FDB5494988491EC1F30F20FFF7CC
:1020C0004EFDB2498989C91C88B2FFF745FDAF4969
:1020D0008978491EC8B2FFF742FD60E0AB494889E4
:1020E000FFF73AFD0020FFF73AFD0020FFF737FD2C
:1020F000A6490988491EC1F30F20FFF730FDA34907
:102100000978491EC8B2FFF72AFDA0498889FFF760
:1021100023FD0020FFF723FD0020FFF720FD9B4952
:102120004988491EC1F30F20FFF719FD97498978A7
:10213000491EC8B2FFF713FD31E0082C1CD2DFE8BE
:1021400004F004070A0D0F12151843F0300313E0D2
:1021500043F0100310E043F020030DE000BF0BE05C
:1021600043F0380308E043F0280305E043F0180388
:1021700002E043F0080300BF00BF8448808848F6AF
:102180008911884204D1112646F24000034302E03F
:10219000032643F4805319463046FFF7E8FC70BD30
:1021A00030B504460D4629462046FFF70DFDFFF7E2
:1021B000EEFC774800887749088030BD30B503468B
:1021C0000C4615467148808849F24131884205D055
:1021D0006E48808845F21031884214D16B49488995
:1021E000FFF7BAFC1812FFF7BAFCD8B2FFF7B7FC3A
:1021F00066498889FFF7B0FC2012FFF7B0FCE0B217
:10220000FFF7ADFC5DE06148808845F210518842DF
:1022100020D15E494889FFF79FFC1812FFF79FFC09
:102220005A494989491C88B2FFF796FCD8B2FFF792
:1022300096FC56498889FFF78FFC2012FFF78FFC28
:1022400052498989491C88B2FFF786FCE0B2FFF742
:1022500086FC36E04D48808846F6040188421DD150
:102260004A488079012804D148480088401EC01A95
:1022700083B246494889FFF76FFC1812FFF76FFCDD
:10228000D8B2FFF76CFC41498889FFF765FC201242
:10229000FFF765FCE0B2FFF762FC12E03B48807993
:1022A000012804D139480088401EC01A83B237493A
:1022B00048891946FFF75BFC344988892146FFF7B6
:1022C00056FC324800893349891E0880881C0580E5
:1022D00030BD10B50446002C66D12C498871F02021
:1022E00008804FF4A07048800846808849F2413148
:1022F00088420BD02548808846F60401884205D0E4
:102300002248808845F2103188421AD12C201F497A
:1023100008812A2048812B2088810846808846F63B
:102320000401884205D01948808845F2103188425E
:1023300006D14FF4A070154908804FF4F070488022
:102340009BE01248808848F68911884207D12220F4
:102350000E4908814E2048814F2088818DE00B482E
:10236000808845F21051884216D14FF43050074909
:1023700008814FF4285048814FF42C5088814FF445
:10238000F07008804FF44870488076E0A217002073
:102390002A0000200008006C2220FE49088120202D
:1023A00048812120888168E00120FA4988714FF432
:1023B000A0700880F02048800846808849F24131AA
:1023C000884205D0F348808845F21031884207D111
:1023D0002C20F04908812A2048812B20888139E06F
:1023E000EC48808846F60401884207D12C20E94950
:1023F00008812B2048812A2088812BE0E5488088AD
:1024000048F68911884207D12220E24908814F20ED
:1024100048814E2088811DE0DE48808845F21051B9
:10242000884210D14FF43050DA4908814FF42850D7
:1024300048814FF42C5088814FF4487008804FF445
:10244000F070488006E02220D2490881212048818E
:1024500020208881CF48808846F60401884205D034
:10246000CC48808845F21031884206D14FF4F07094
:10247000C84908804FF4A07048800020FFF729FD6C
:1024800010BD2DE9FF4F04460D4616461F46A01904
:10249000401E86B2E819401E87B2BE48808849F2C5
:1024A000413188420BD0BB48808845F210318842C8
:1024B00005D0B848808846F60401884220D1B54945
:1024C0004889FFF749FB2012FFF749FBE0B2FFF70D
:1024D00046FB3012FFF743FBF0B2FFF740FBAD497C
:1024E0008889FFF739FB2812FFF739FBE8B2FFF7BD
:1024F00036FB3812FFF733FBF8B2FFF730FB91E001
:10250000A448808845F21051884244D1A1494889A5
:10251000FFF722FB2012FFF722FB9E494989491C45
:1025200088B2FFF719FBE0B2FFF719FB9949498917
:10253000891C88B2FFF710FB3012FFF710FB95499A
:102540004989C91C88B2FFF707FBF0B2FFF707FB08
:1025500090498889FFF700FB2812FFF700FB8D499F
:102560008989491C88B2FFF7F7FAE8B2FFF7F7FA52
:1025700088498989891C88B2FFF7EEFA3812FFF77B
:10258000EEFA84498989C91C88B2FFF7E5FAF8B2E6
:10259000FFF7E5FA46E07F48807901280ED1A8468A
:1025A000B9467C480088801B401E80B20190794863
:1025B0000088001B401E80B2009003E0A046B14698
:1025C000019500977348808848F6891188420DD19B
:1025D0004FF0440A4FF0440B48EA09201FFA80F8F4
:1025E000C146452003904620029007E04FF0500A74
:1025F0004FF0510B52200390532002904146504619
:10260000FFF7B5FA49465846FFF7B1FA0199039822
:10261000FFF7ADFA00990298FFF7A9FA294620467C
:10262000FFF7D2FABDE8FF8F70B50446002659487F
:102630000588408845435748808846F6040188420B
:1026400016D154488079012812D10020514988714F
:102650002A2048812B20888100210846FFF7B4FA00
:1026600001204C4988712B2048812A20888103E071
:1026700000210846FFF7A8FAFFF789FA002602E0D2
:1026800045480480761CAE42FAD370BD00B59FB0B9
:102690000121080205F08FFF012140F2691005F0C9
:1026A00097FF0120ADF8780010208DF87B00032003
:1026B0008DF87A001EA9394805F0CEFC4CF2337033
:1026C000ADF8780018208DF87B0003208DF87A0093
:1026D0001EA9334805F0C0FC4FF68070ADF87800B5
:1026E00018208DF87B0003208DF87A001EA92D4854
:1026F00005F0B2FC41F20100ADF8780018208DF829
:102700007B0003208DF87A001EA9274805F0A4FC61
:1027100001200890002009900F200A9000200B90C3
:102720000C900D900E9001900290032003900020D9
:10273000049005900690079006200F9000201090BE
:102740001190102012900020139015901490169064
:1027500017904FF480501890002019904FF480404B
:102760001A9000201B9008A81C9001A81D900FA88B
:1027700005F058F90121062005F0BCFA322004F0DA
:102780002AFF01210020FFF7F2F9322004F023FF95
:1027900000200BE0A21700200008006C000C014094
:1027A000001401400018014000200140FFF7E4F947
:1027B000FE49888008468088FF280ADB0846808812
:1027C0004FF6FF71884204D0F8488088B0F5134F67
:1027D0007ED1D320FFF7C0F9FFF7C5F9FFF7C3F9A2
:1027E000FFF7C1F9F1498880084680884FF6FF71EC
:1027F00001EA0020ED498880FFF7B5F9EB498988A7
:102800000843EA4988800846808849F24131884275
:102810006CD0BF20FFF7A0F9FFF7A5F9FFF7A3F9E8
:10282000FFF7A1F9FFF79FF9E04988800846808803
:102830004FF6FF7101EA0020DC498880FFF793F929
:10284000DA4989880843D94988800846808846F64D
:10285000040188424AD0D420FFF77EF9FFF783F9BC
:10286000FFF781F9FFF77FF9D04988800846808813
:102870004FF6FF7101EA0020CC498880FFF773F919
:10288000CA4989880843C94988800846808845F232
:10289000103188422AD04FF45A40FFF75DF9FFF714
:1028A00062F94FF45B40FFF757F9FFF75CF9BF4956
:1028B0008880084680884FF6FF7101EA0020BB49F6
:1028C00088804FF45C40FFF747F9FFF74CF900E0D0
:1028D0000CE0B64989880843B44988800846808856
:1028E000B0F5004F02D145F210508880AF48818882
:1028F000AFA00FF0E3FDAD48808849F24131884236
:102900007ED1CF20FFF728F90020FFF728F9C1205A
:10291000FFF725F93020FFF722F9ED20FFF71CF92A
:102920006420FFF71CF90320FFF719F91220FFF7C5
:1029300016F98120FFF713F9E820FFF70DF985203C
:10294000FFF70DF91020FFF70AF97A20FFF707F9D2
:10295000CB20FFF701F93920FFF701F92C20FFF711
:10296000FEF80020FFF7FBF83420FFF7F8F802200C
:10297000FFF7F5F8F720FFF7EFF82020FFF7EFF863
:10298000EA20FFF7E9F80020FFF7E9F80020FFF759
:10299000E6F8C020FFF7E0F81B20FFF7E0F8C120C1
:1029A000FFF7DAF80120FFF7DAF8C520FFF7D4F8CF
:1029B0003020FFF7D4F83020FFF7D1F8C720FFF719
:1029C000CBF8B720FFF7CBF83620FFF7C5F8482043
:1029D000FFF7C5F83A20FFF7BFF85520FFF7BFF81B
:1029E000B120FFF7B9F80020FFF7B9F81A20FFF778
:1029F000B6F8B620FFF7B0F80A20FFF7B0F800E00D
:102A000097E0A220FFF7ABF8F220FFF7A5F800202F
:102A1000FFF7A5F82620FFF79FF80120FFF79FF8A2
:102A2000E020FFF799F80F20FFF799F82A20FFF729
:102A300096F82820FFF793F80820FFF790F80E206B
:102A4000FFF78DF80820FFF78AF85420FFF787F882
:102A5000A920FFF784F84320FFF781F80A20FFF749
:102A60007EF80F20FFF77BF80020FFF778F80020B2
:102A7000FFF775F80020FFF772F80020FFF76FF8F6
:102A8000E120FFF769F80020FFF769F81520FFF74C
:102A900066F81720FFF763F80720FFF760F81120AA
:102AA000FFF75DF80620FFF75AF82B20FFF757F8DD
:102AB0005620FFF754F83C20FFF751F80520FFF7A8
:102AC0004EF81020FFF74BF80F20FFF748F83F2093
:102AD000FFF745F83F20FFF742F80F20FFF73FF8D8
:102AE0002B20FFF739F80020FFF739F80020FFF717
:102AF00036F80120FFF733F83F20FFF730F82A209F
:102B0000FFF72AF80020FFF72AF80020FFF727F840
:102B10000020FFF724F8EF20FFF721F81120FFF73E
:102B20001BF8782004F057FD2920FFF715F803F073
:102B30002AB91E48808846F6040188427ED11120B9
:102B4000FFF70AF8142004F046FDD020FFF704F840
:102B50000720FFF704F84220FFF701F81D20FEF7D9
:102B6000FEFFD120FEF7F8FF0020FEF7F8FF1A2045
:102B7000FEF7F5FF0920FEF7F2FFD220FEF7ECFF8B
:102B80000120FEF7ECFF2220FEF7E9FFC020FEF750
:102B9000E3FF1020FEF7E3FF3B20FEF7E0FF0020FD
:102BA000FEF7DDFF0220FEF7DAFF09E0A2170020A2
:102BB000204C43442049443A25780D0A0000000087
:102BC0001120FEF7CCFFC520FEF7C6FF0320FEF75D
:102BD000C6FFC820FEF7C0FF0020FEF7C0FF25207B
:102BE000FEF7BDFF2120FEF7BAFF0520FEF7B7FF75
:102BF0000020FEF7B4FF0A20FEF7B1FF6520FEF7C4
:102C0000AEFF2520FEF7ABFF7720FEF7A8FF502090
:102C1000FEF7A5FF0F20FEF7A2FF0020FEF79FFFA3
:102C2000F820FEF799FF0120FEF799FFFE20FEF73E
:102C300093FF0020FEF793FF022000E035E0FEF74F
:102C40008EFF2020FEF788FF3620FEF785FF082044
:102C5000FEF785FF3A20FEF77FFF5520FEF77FFF46
:102C60002B20FEF779FF0020FEF779FF0020FEF70A
:102C700076FF0120FEF773FF3F20FEF770FF2A204A
:102C8000FEF76AFF0020FEF76AFF0020FEF767FFED
:102C90000120FEF764FFDF20FEF761FF782004F0DB
:102CA0009AFC2920FEF758FF41E7FE48808845F24C
:102CB0001031884240F07C87ED20FEF74DFF012067
:102CC000FEF74DFFFE20FEF74AFFEE20FEF744FF21
:102CD000DE20FEF744FF2120FEF741FFF120FEF742
:102CE0003BFF0120FEF73BFFDF20FEF735FF102002
:102CF000FEF735FFC420FEF72FFF8F20FEF72FFFD2
:102D0000C620FEF729FF0020FEF729FFE220FEF78C
:102D100026FFE220FEF723FFE220FEF720FFBF2080
:102D2000FEF71AFFAA20FEF71AFFB020FEF714FFE5
:102D30000D20FEF714FF0020FEF711FF0D20FEF717
:102D40000EFF0020FEF70BFF1120FEF708FF00200A
:102D5000FEF705FF1920FEF702FF0020FEF7FFFE39
:102D60002120FEF7FCFE0020FEF7F9FE2D20FEF7E5
:102D7000F6FE0020FEF7F3FE3D20FEF7F0FE0020F9
:102D8000FEF7EDFE5D20FEF7EAFE0020FEF7E7FE0F
:102D90005D20FEF7E4FE0020FEF7E1FEB120FEF725
:102DA000DBFE8020FEF7DBFE0020FEF7D8FE8B2046
:102DB000FEF7D5FE0020FEF7D2FE9620FEF7CFFEEE
:102DC0000020FEF7CCFEB220FEF7C6FE0020FEF784
:102DD000C6FE0020FEF7C3FE0220FEF7C0FE002064
:102DE000FEF7BDFE0320FEF7BAFE0020FEF7B7FE99
:102DF000B320FEF7B1FE0020FEF7B1FE0020FEF783
:102E0000AEFE0020FEF7ABFE0020FEF7A8FE00207D
:102E1000FEF7A5FE0020FEF7A2FE0020FEF79FFEB3
:102E20000020FEF79CFE0020FEF799FE0020FEF732
:102E300096FE0020FEF793FE0020FEF790FE002095
:102E4000FEF78DFE0020FEF78AFE0020FEF787FECB
:102E50000020FEF784FE0020FEF781FE0020FEF732
:102E60007EFE0020FEF77BFE0020FEF778FE0020AD
:102E7000FEF775FE0020FEF772FE0020FEF76FFEE3
:102E80000020FEF76CFEB420FEF766FE8B20FEF7F6
:102E900066FE0020FEF763FE9620FEF760FE00202F
:102EA000FEF75DFEA120FEF75AFE0020FEF757FE5A
:102EB000B520FEF751FE0220FEF751FE0020FEF77E
:102EC0004EFE0320FEF74BFE0020FEF748FE0420D6
:102ED000FEF745FE0020FEF742FEB620FEF73CFE60
:102EE0000020FEF73CFE0020FEF739FEB720FEF77B
:102EF00033FE0020FEF733FE0020FEF730FE3F20B9
:102F0000FEF72DFE0020FEF72AFE5E20FEF727FECC
:102F10000020FEF724FE6420FEF721FE0020FEF7CD
:102F20001EFE8C20FEF71BFE0020FEF718FEAC20D4
:102F3000FEF715FE0020FEF712FEDC20FEF70FFE66
:102F40000020FEF70CFE7020FEF709FE0020FEF7C1
:102F500006FE9020FEF703FE0020FEF700FEEB20A9
:102F6000FEF7FDFD0020FEF7FAFDDC20FEF7F7FD81
:102F70000020FEF7F4FDB820FEF7EEFD0020FEF77E
:102F8000EEFD0020FEF7EBFD0020FEF7E8FD00203F
:102F9000FEF7E5FD0020FEF7E2FD0020FEF7DFFD75
:102FA0000020FEF7DCFD0020FEF7D9FDBA20FEF779
:102FB000D3FD2420FEF7D3FD0020FEF7D0FD002036
:102FC000FEF7CDFD0020FEF7CAFDC120FEF7C4FDCF
:102FD0002020FEF7C4FD0020FEF7C1FD5420FEF7BF
:102FE000BEFD0020FEF7BBFDFF20FEF7B8FD002070
:102FF000FEF7B5FDC220FEF7AFFD0A20FEF7AFFDDC
:103000000020FEF7ACFD0420FEF7A9FD0020FEF72E
:10301000A6FDC320FEF7A0FD3C20FEF7A0FD00208A
:10302000FEF79DFD3A20FEF79AFD0020FEF797FD82
:103030003920FEF794FD0020FEF791FD3720FEF7C2
:103040008EFD0020FEF78BFD3C20FEF788FD002062
:10305000FEF785FD3620FEF782FD0020FEF77FFD9E
:103060003220FEF77CFD0020FEF779FD2F20FEF7D1
:1030700076FD0020FEF773FD2C20FEF770FD00208A
:10308000FEF76DFD2920FEF76AFD0020FEF767FDC3
:103090002620FEF764FD0020FEF761FD2420FEF7E8
:1030A0005EFD01E0A21700200020FEF758FD24205D
:1030B000FEF755FD0020FEF752FD2320FEF74FFDE1
:1030C0000020FEF74CFD3C20FEF749FD0020FEF7F6
:1030D00046FD3620FEF743FD0020FEF740FD32207E
:1030E000FEF73DFD0020FEF73AFD2F20FEF737FDED
:1030F0000020FEF734FD2C20FEF731FD0020FEF706
:103100002EFD2920FEF72BFD0020FEF728FD2620AE
:10311000FEF725FD0020FEF722FD2420FEF71FFD0F
:103120000020FEF71CFD2420FEF719FD0020FEF70D
:1031300016FD2320FEF713FD0020FEF710FDC4202E
:10314000FEF70AFD6220FEF70AFD0020FEF707FDEC
:103150000520FEF704FD0020FEF701FD8420FEF7A8
:10316000FEFC0020FEF7FBFCF020FEF7F8FC002040
:10317000FEF7F5FC1820FEF7F2FC0020FEF7EFFC4E
:10318000A420FEF7ECFC0020FEF7E9FC1820FEF777
:10319000E6FC0020FEF7E3FC5020FEF7E0FC0020F8
:1031A000FEF7DDFC0C20FEF7DAFC0020FEF7D7FC72
:1031B0001720FEF7D4FC0020FEF7D1FC9520FEF787
:1031C000CEFC0020FEF7CBFCF320FEF7C8FC00206D
:1031D000FEF7C5FCE620FEF7C2FC0020FEF7BFFCB0
:1031E000C520FEF7B9FC3220FEF7B9FC0020FEF73F
:1031F000B6FC4420FEF7B3FC0020FEF7B0FC6520CF
:10320000FEF7ADFC0020FEF7AAFC7620FEF7A7FC37
:103210000020FEF7A4FC8820FEF7A1FC0020FEF7AA
:103220009EFCC620FEF798FC2020FEF798FC0020AC
:10323000FEF795FC1720FEF792FC0020FEF78FFCAE
:103240000120FEF78CFC0020FEF789FCC720FEF76A
:1032500083FC0020FEF783FC0020FEF780FC0020AA
:10326000FEF77DFC0020FEF77AFCC820FEF774FC18
:103270000020FEF774FC0020FEF771FC0020FEF732
:103280006EFC0020FEF76BFCC920FEF765FC0020F9
:10329000FEF765FC0020FEF762FC0020FEF75FFCF5
:1032A0000020FEF75CFC0020FEF759FC0020FEF732
:1032B00056FC0020FEF753FC0020FEF750FC0020D7
:1032C000FEF74DFC0020FEF74AFC0020FEF747FC0D
:1032D0000020FEF744FC0020FEF741FC0020FEF732
:1032E0003EFC0020FEF73BFC0020FEF738FCE0200F
:1032F000FEF732FC1620FEF732FC0020FEF72FFC12
:103300001C20FEF72CFC0020FEF729FC2120FEF7F4
:1033100026FC0020FEF723FC3620FEF720FC0020D0
:10332000FEF71DFC4620FEF71AFC0020FEF717FCF6
:103330005220FEF714FC0020FEF711FC6420FEF77B
:103340000EFC0020FEF70BFC7A20FEF708FC0020A4
:10335000FEF705FC8B20FEF702FC0020FEF7FFFBCA
:103360009920FEF7FCFB0020FEF7F9FBA820FEF7F2
:10337000F6FB0020FEF7F3FBB920FEF7F0FB002080
:10338000FEF7EDFBC420FEF7EAFB0020FEF7E7FBAB
:10339000CA20FEF7E4FB0020FEF7E1FBD220FEF797
:1033A000DEFB0020FEF7DBFBD920FEF7D8FB002078
:1033B000FEF7D5FBE020FEF7D2FB0020FEF7CFFBA7
:1033C000F320FEF7CCFB0020FEF7C9FBE120FEF75F
:1033D000C3FB1620FEF7C3FB0020FEF7C0FB1C203A
:1033E000FEF7BDFB0020FEF7BAFB2220FEF7B7FB7D
:1033F0000020FEF7B4FB3620FEF7B1FB0020FEF7FD
:10340000AEFB4520FEF7ABFB0020FEF7A8FB5220E9
:10341000FEF7A5FB0020FEF7A2FB6420FEF79FFB52
:103420000020FEF79CFB7A20FEF799FB0020FEF7B8
:1034300096FB8B20FEF793FB0020FEF790FB992074
:10344000FEF78DFB0020FEF78AFBA820FEF787FB26
:103450000020FEF784FBB920FEF781FB0020FEF779
:103460007EFBC420FEF77BFB0020FEF778FBCA2022
:10347000FEF775FB0020FEF772FBD220FEF76FFB14
:103480000020FEF76CFBD820FEF769FB0020FEF75A
:1034900066FBE020FEF763FB0020FEF760FBF320F5
:1034A000FEF75DFB0020FEF75AFBE220FEF754FB1F
:1034B0000520FEF754FB0020FEF751FB0B20FEF722
:1034C0004EFB0020FEF74BFB1B20FEF748FB0020C5
:1034D000FEF745FB3420FEF742FB0020FEF73FFBE2
:1034E0004420FEF73CFB0020FEF739FB4F20FEF79F
:1034F00036FB0020FEF733FB6120FEF730FB002097
:10350000FEF72DFB7920FEF72AFB0020FEF727FBB4
:103510008820FEF724FB0020FEF721FB9720FEF712
:103520001EFB0020FEF71BFBA620FEF718FB002069
:10353000FEF715FBB720FEF712FB0020FEF70FFB8E
:10354000C220FEF70CFB0020FEF709FBC720FEF7A8
:1035500006FB0020FEF703FBD120FEF700FB002056
:10356000FEF7FDFAD620FEF7FAFA0020FEF7F7FA8A
:10357000DD20FEF7F4FA0020FEF7F1FAF320FEF763
:10358000EEFA0020FEF7EBFAE320FEF7E5FA05205D
:10359000FEF7E5FA0020FEF7E2FA0A20FEF7DFFA6E
:1035A0000020FEF7DCFA1C20FEF7D9FA0020FEF717
:1035B000D6FA3320FEF7D3FA0020FEF7D0FA4420E3
:1035C000FEF7CDFA0020FEF7CAFA5020FEF7C7FA40
:1035D0000020FEF7C4FA6220FEF7C1FA0020FEF7D1
:1035E000BEFA7820FEF7BBFA0020FEF7B8FA882072
:1035F000FEF7B5FA0020FEF7B2FA9720FEF7AFFA11
:103600000020FEF7ACFAA620FEF7A9FA0020FEF78C
:10361000A6FAB720FEF7A3FA0020FEF7A0FAC22010
:10362000FEF79DFA0020FEF79AFAC720FEF797FAF8
:103630000020FEF794FAD120FEF791FA0020FEF761
:103640008EFAD520FEF78BFA0020FEF788FADD20EF
:10365000FEF785FA0020FEF782FAF320FEF77FFAE4
:103660000020FEF77CFAE420FEF776FA0120FEF750
:1036700076FA0020FEF773FA0120FEF770FA0020B8
:10368000FEF76DFA0220FEF76AFA0020FEF767FAED
:103690002A20FEF764FA0020FEF761FA3C20FEF7CC
:1036A0005EFA0020FEF75BFA4B20FEF758FA002086
:1036B000FEF755FA5D20FEF752FA0020FEF74FFAAA
:1036C0007420FEF74CFA0020FEF749FA8420FEF73A
:1036D00046FA0020FEF743FA9320FEF740FA002056
:1036E000FEF73DFAA220FEF73AFA0020FEF737FA7D
:1036F000B320FEF734FA0020FEF731FABE20FEF7C1
:103700002EFA0020FEF72BFAC420FEF728FA00203C
:10371000FEF725FACD20FEF722FA0020FEF71FFA69
:10372000D320FEF71CFA0020FEF719FADD20FEF781
:1037300016FA0020FEF713FAF320FEF710FA002025
:10374000FEF70DFAE520FEF707FA0020FEF707FA6C
:103750000020FEF704FA0020FEF701FA0020FEF731
:10376000FEF90220FEF7FBF90020FEF7F8F9292008
:10377000FEF7F5F90020FEF7F2F93C20FEF7EFF92D
:103780000020FEF7ECF94B20FEF7E9F90020FEF7E8
:10379000E6F95D20FEF7E3F90020FEF7E0F974207A
:1037A000FEF7DDF90020FEF7DAF98420FEF7D7F9FD
:1037B0000020FEF7D4F99320FEF7D1F90020FEF7A0
:1037C000CEF9A220FEF7CBF90020FEF7C8F9B3200E
:1037D000FEF7C5F90020FEF7C2F9BE20FEF7BFF9DB
:1037E0000020FEF7BCF9C420FEF7B9F90020FEF76F
:1037F000B6F9CD20FEF7B3F90020FEF7B0F9D320DB
:10380000FEF7ADF90020FEF7AAF9DC20FEF7A7F9D4
:103810000020FEF7A4F9F320FEF7A1F90020FEF73F
:103820009EF9E620FEF798F91120FEF798F900209E
:10383000FEF795F93420FEF792F90020FEF78FF994
:103840005620FEF78CF90020FEF789F97620FEF766
:1038500086F90020FEF783F97720FEF780F9002033
:10386000FEF77DF96620FEF77AF90020FEF777F97A
:103870008820FEF774F90020FEF771F99920FEF711
:103880006EF90020FEF76BF9BB20FEF768F9002007
:10389000FEF765F99920FEF762F90020FEF75FF95F
:1038A0006620FEF75CF90020FEF759F95520FEF777
:1038B00056F90020FEF753F95520FEF750F9002085
:1038C000FEF74DF94520FEF74AF90020FEF747F9CB
:1038D0004320FEF744F90020FEF741F94420FEF7AB
:1038E0003EF90020FEF73BF9E720FEF735F93220DC
:1038F000FEF735F90020FEF732F95520FEF72FF9D3
:103900000020FEF72CF97620FEF729F90020FEF7BB
:1039100026F96620FEF723F90020FEF720F967203C
:10392000FEF71DF90020FEF71AF96720FEF717F9D8
:103930000020FEF714F98720FEF711F90020FEF7AA
:103940000EF99920FEF70BF90020FEF708F9BB20CD
:10395000FEF705F90020FEF702F99920FEF7FFF8BF
:103960000020FEF7FCF87720FEF7F9F80020FEF7BC
:10397000F6F84420FEF7F3F80020FEF7F0F85620A2
:10398000FEF7EDF80020FEF7EAF82320FEF7E7F84F
:103990000020FEF7E4F83320FEF7E1F80020FEF700
:1039A000DEF84520FEF7DBF80020FEF7D8F8E82027
:1039B000FEF7D2F80020FEF7D2F80020FEF7CFF88D
:1039C0009920FEF7CCF80020FEF7C9F88720FEF713
:1039D000C6F80020FEF7C3F88820FEF7C0F80020E4
:1039E000FEF7BDF87720FEF7BAF80020FEF7B7F82B
:1039F0006620FEF7B4F80020FEF7B1F88820FEF745
:103A0000AEF80020FEF7ABF8AA20FEF7A8F80020D9
:103A1000FEF7A5F8BB20FEF7A2F80020FEF79FF8FE
:103A20009920FEF79CF80020FEF799F86620FEF733
:103A300096F80020FEF793F85520FEF790F8002046
:103A4000FEF78DF85520FEF78AF80020FEF787F87C
:103A50004420FEF784F80020FEF781F84420FEF7AA
:103A60007EF80020FEF77BF85520FEF778F800205E
:103A7000FEF775F8E920FEF76FF8AA20FEF76FF859
:103A80000020FEF76CF80020FEF769F80020FEF732
:103A900066F80020FEF760F8AA20FEF760F8CF2055
:103AA000FEF75AF80020FEF75AF80020FEF757F804
:103AB0000020FEF754F80020FEF751F80020FEF732
:103AC0004EF80020FEF74BF80020FEF748F80020E3
:103AD000FEF745F80020FEF742F80020FEF73FF819
:103AE0000020FEF73CF80020FEF739F80020FEF732
:103AF00036F80020FEF733F80020FEF730F80020FB
:103B0000FEF72DF80020FEF72AF8F020FEF724F843
:103B10000020FEF724F85020FEF721F80020FEF7E1
:103B20001EF80020FEF71BF80020FEF718F8F3201F
:103B3000FEF712F80020FEF712F8F920FEF70CF855
:103B40000620FEF70CF81020FEF709F82920FEF7F2
:103B500006F80020FEF703F83A20FDF7FDFF552098
:103B6000FDF7FDFF1120FDF7F7FF642003F033FDA3
:103B70002920FDF7F1FF3520FDF7EEFF0020FDF7CE
:103B8000EEFF5120FDF7E8FFFF20FDF7E8FF53208F
:103B9000FDF7E2FF2C20FDF7E2FF5520FDF7DCFFEB
:103BA0008220FDF7DCFF2C20FDF7D6FF02F0EBB8FA
:103BB000FE48808845F2105188427DD155214FF44E
:103BC0007040FDF7D4FFAA214FF20100FDF7CFFFAF
:103BD00052214FF20200FDF7CAFF08214FF2030005
:103BE000FDF7C5FF01214FF20400FDF7C0FF0D21D5
:103BF0004FF43040FDF7BBFF0D214BF20100FDF704
:103C0000B6FF0D214BF20200FDF7B1FF34214FF456
:103C10003640FDF7ACFF34214BF20160FDF7A7FF02
:103C200034214BF20260FDF7A2FF0D214FF4314029
:103C3000FDF79DFF0D214BF20110FDF798FF0D21BF
:103C40004BF20210FDF793FF34214FF43740FDF79C
:103C50008EFF34214BF20170FDF789FF34214BF2C6
:103C60000270FDF784FF00214FF43240FDF77FFF23
:103C700000214BF20120FDF77AFF00214BF20220D8
:103C8000FDF775FF24214FF43840FDF770FF242124
:103C90004BF60100FDF76BFF24214BF60200FDF708
:103CA00066FF01214FF43F40FDF761FF0F214FF404
:103CB0003340FDF75CFF00E0FDE30F214BF20130E4
:103CC000FDF755FF0F214BF20230FDF750FF342175
:103CD0004FF43940FDF74BFF34214BF60110FDF74F
:103CE00046FF34214BF60210FDF741FF08214FF447
:103CF0003540FDF73CFF08214BF20150FDF737FF3F
:103D000008214BF20250FDF732FF03214FF44240ED
:103D1000FDF72DFF24214FF43A40FDF728FF242121
:103D20004BF60120FDF723FF24214BF60220FDF77F
:103D30001EFF00214FF43C40FDF719FF78214BF6A0
:103D40000140FDF714FF00214BF60240FDF70FFF85
:103D500000214FF43D40FDF70AFF78214BF601505A
:103D6000FDF705FF00214BF60250FDF700FF002193
:103D70004FF43E40FDF7FBFE64214BF60160FDF77A
:103D8000F6FE00214FF45140FDF7F1FE33214DF2D4
:103D90000110FDF7ECFE00214DF20210FDF7E7FEE9
:103DA00034214DF20310FDF7E2FE00214DF2041024
:103DB000FDF7DDFE3A214DF20510FDF7D8FE00219A
:103DC0004DF20610FDF7D3FE4A214DF20710FDF724
:103DD000CEFE00214DF20810FDF7C9FE5C214DF228
:103DE0000910FDF7C4FE00214DF20A10FDF7BFFED9
:103DF00081214DF20B10FDF7BAFE00214DF20C109F
:103E0000FDF7B5FEA6214DF20D10FDF7B0FE002125
:103E10004DF20E10FDF7ABFEE5214DF20F10FDF750
:103E2000A6FE01214DF21010FDF7A1FE13214DF267
:103E30001110FDF79CFE01214DF21210FDF797FEC7
:103E400054214DF21310FDF792FE01214DF2141092
:103E5000FDF78DFE82214DF21510FDF788FE012140
:103E60004DF21610FDF783FECA214DF21710FDF733
:103E70007EFE02214DF21810FDF779FE00214DF271
:103E80001910FDF774FE02214DF21A10FDF76FFEB6
:103E900001214DF21B10FDF76AFE02214DF21C10AC
:103EA000FDF765FE34214DF21D10FDF760FE022185
:103EB0004DF21E10FDF75BFE67214DF21F10FDF75E
:103EC00056FE02214DF22010FDF751FE84214DF2E5
:103ED0002110FDF74CFE02214DF22210FDF747FEA6
:103EE000A4214DF22310FDF742FE02214DF22410D1
:103EF000FDF73DFEB7214DF22510FDF738FE0221FA
:103F00004DF22610FDF733FECF214DF22710FDF7BD
:103F10002EFE02214DF22810FDF729FEDE214DF282
:103F20002910FDF724FE02214DF22A10FDF71FFE95
:103F3000F2214DF22B10FDF71AFE02214DF22C104A
:103F4000FDF715FEFE214DF22D10FDF710FE0321A9
:103F50004DF22E10FDF70BFE10214DF22F10FDF744
:103F600006FE03214DF23010FDF701FE33214DF224
:103F70003110FDF7FCFD03214DF23210FDF7F7FD86
:103F80006D214DF23310FDF7F2FD00214FF4524048
:103F9000FDF7EDFD33214DF20120FDF7E8FD002195
:103FA0004DF20220FDF7E3FD342101E0A2170020CD
:103FB0004DF20320FDF7DBFD00214DF20420FDF75B
:103FC000D6FD3A214DF20520FDF7D1FD00214DF23D
:103FD0000620FDF7CCFD4A214DF20720FDF7C7FD75
:103FE00000214DF20820FDF7C2FD5C214DF20920B1
:103FF000FDF7BDFD00214DF20A20FDF7B8FD81213E
:104000004DF20B20FDF7B3FD00214DF20C20FDF722
:10401000AEFDA6214DF20D20FDF7A9FD00214DF2C8
:104020000E20FDF7A4FDE5214DF20F20FDF79FFDC9
:1040300001214DF21020FDF79AFD13214DF21120C0
:10404000FDF795FD01214DF21220FDF790FD542161
:104050004DF21320FDF78BFD01214DF21420FDF7E9
:1040600086FD82214DF21520FDF781FD01214DF2E3
:104070001620FDF77CFDCA214DF21720FDF777FDD4
:1040800002214DF21820FDF772FD00214DF219209A
:10409000FDF76DFD02214DF21A20FDF768FD0121AB
:1040A0004DF21B20FDF763FD02214DF21C20FDF7B0
:1040B0005EFD34214DF21D20FDF759FD02214DF228
:1040C0001E20FDF754FD67214DF21F20FDF74FFD27
:1040D00002214DF22020FDF74AFD84214DF22120DE
:1040E000FDF745FD02214DF22220FDF740FDA42100
:1040F0004DF22320FDF73BFD02214DF22420FDF778
:1041000036FDB7214DF22520FDF731FD02214DF29C
:104110002620FDF72CFDCF214DF22720FDF727FDAE
:1041200002214DF22820FDF722FDDE214DF229204B
:10413000FDF71DFD02214DF22A20FDF718FDF221A9
:104140004DF22B20FDF713FD02214DF22C20FDF73F
:104150000EFDFE214DF22D20FDF709FD03214DF24C
:104160002E20FDF704FD10214DF22F20FDF7FFFC5E
:1041700003214DF23020FDF7FAFC33214DF23120BE
:10418000FDF7F5FC03214DF23220FDF7F0FC6D2127
:104190004DF23320FDF7EBFC00214FF45340FDF7C7
:1041A000E6FC33214DF20130FDF7E1FC00214DF238
:1041B0000230FDF7DCFC34214DF20330FDF7D7FC73
:1041C00000214DF20430FDF7D2FC3A214DF20530CA
:1041D000FDF7CDFC00214DF20630FDF7C8FC4A2169
:1041E0004DF20730FDF7C3FC00214DF20830FDF71A
:1041F000BEFC5C214DF20930FDF7B9FC00214DF207
:104200000A30FDF7B4FC81214DF20B30FDF7AFFC15
:1042100000214DF20C30FDF7AAFCA6214DF20D3025
:10422000FDF7A5FC00214DF20E30FDF7A0FCE521C5
:104230004DF20F30FDF79BFC01214DF21030FDF7E0
:1042400096FC13214DF21130FDF791FC01214DF246
:104250001230FDF78CFC54214DF21330FDF787FC32
:1042600001214DF21430FDF782FC82214DF2153010
:10427000FDF77DFC01214DF21630FDF778FCCA21D7
:104280004DF21730FDF773FC02214DF21830FDF7A7
:104290006EFC00214DF21930FDF769FC02214DF250
:1042A0001A30FDF764FC01214DF21B30FDF75FFC75
:1042B00002214DF21C30FDF75AFC34214DF21D3025
:1042C000FDF755FC02214DF21E30FDF750FC672131
:1042D0004DF21F30FDF74BFC02214DF22030FDF76F
:1042E00046FC84214DF22130FDF741FC02214DF2C4
:1042F0002230FDF73CFCA4214DF22330FDF737FCC2
:1043000002214DF22430FDF732FCB7214DF2253069
:10431000FDF72DFC02214DF22630FDF728FCCF21C0
:104320004DF22730FDF723FC02214DF22830FDF736
:104330001EFCDE214DF22930FDF719FC02214DF261
:104340002A30FDF714FCF2214DF22B30FDF70FFC63
:1043500002214DF22C30FDF70AFCFE214DF22D30EA
:10436000FDF705FC03214DF22E30FDF700FC102176
:104370004DF22F30FDF7FBFB03214DF23030FDF7FE
:10438000F6FB33214DF23130FDF7F1FB03214DF205
:104390003230FDF7ECFB6D214DF23330FDF7E7FBDA
:1043A00000214FF45440FDF7E2FB33214DF2014070
:1043B000FDF7DDFB00214DF20240FDF7D8FB342173
:1043C0004DF20340FDF7D3FB00214DF20440FDF711
:1043D000CEFB3A214DF20540FDF7C9FB00214DF21D
:1043E0000640FDF7C4FB4A214DF20740FDF7BFFB35
:1043F00000214DF20840FDF7BAFB5C214DF2094067
:10440000FDF7B5FB00214DF20A40FDF7B0FB81211D
:104410004DF20B40FDF7ABFB00214DF20C40FDF7D8
:10442000A6FBA6214DF20D40FDF7A1FB00214DF2A8
:104430000E40FDF79CFBE5214DF20F40FDF797FB89
:1044400001214DF21040FDF792FB13214DF2114076
:10445000FDF78DFB01214DF21240FDF788FB542141
:104460004DF21340FDF783FB01214DF21440FDF79F
:104470007EFB82214DF21540FDF779FB01214DF2C3
:104480001640FDF774FBCA214DF21740FDF76FFB94
:1044900002214DF21840FDF76AFB00214DF2194050
:1044A000FDF765FB02214DF21A40FDF760FB01218B
:1044B0004DF21B4000E006E3FDF759FB02214DF2EF
:1044C0001C40FDF754FB34214DF21D40FDF74FFB1E
:1044D00002214DF21E40FDF74AFB67214DF21F40BD
:1044E000FDF745FB02214DF22040FDF740FB842102
:1044F0004DF22140FDF73BFB02214DF22240FDF73A
:1045000036FBA4214DF22340FDF731FB02214DF291
:104510002440FDF72CFBB7214DF22540FDF727FB8A
:1045200002214DF22640FDF722FBCF214DF227401C
:10453000FDF71DFB02214DF22840FDF718FBDE219F
:104540004DF22940FDF713FB02214DF22A40FDF701
:104550000EFBF2214DF22B40FDF709FB02214DF23B
:104560002C40FDF704FBFE214DF22D40FDF7FFFA34
:1045700003214DF22E40FDF7FAFA10214DF22F40A3
:10458000FDF7F5FA03214DF23040FDF7F0FA332143
:104590004DF23140FDF7EBFA03214DF23240FDF7C9
:1045A000E6FA6D214DF23340FDF7E1FA00214FF4B8
:1045B0005540FDF7DCFA33214DF20150FDF7D7FAF3
:1045C00000214DF20250FDF7D2FA34214DF2035092
:1045D000FDF7CDFA00214DF20450FDF7C8FA3A215B
:1045E0004DF20550FDF7C3FA00214DF20650FDF7DC
:1045F000BEFA4A214DF20750FDF7B9FA00214DF2FB
:104600000850FDF7B4FA5C214DF20950FDF7AFFAFE
:1046100000214DF20A50FDF7AAFA81214DF20B500C
:10462000FDF7A5FA00214DF20C50FDF7A0FAA621E6
:104630004DF20D50FDF79BFA00214DF20E50FDF7A3
:1046400096FAE5214DF20F50FDF791FA01214DF256
:104650001050FDF78CFA13214DF21150FDF787FA37
:1046600001214DF21250FDF782FA54214DF2135000
:10467000FDF77DFA01214DF21450FDF778FA822101
:104680004DF21550FDF773FA01214DF21650FDF76A
:104690006EFACA214DF21750FDF769FA02214DF268
:1046A0001850FDF764FA00214DF21950FDF75FFA3A
:1046B00002214DF21A50FDF75AFA01214DF21B501A
:1046C000FDF755FA02214DF21C50FDF750FA342146
:1046D0004DF21D50FDF74BFA02214DF21E50FDF731
:1046E00046FA67214DF21F50FDF741FA02214DF2C3
:1046F0002050FDF73CFA84214DF22150FDF737FAA6
:1047000002214DF22250FDF732FAA4214DF223503E
:10471000FDF72DFA02214DF22450FDF728FAB721BA
:104720004DF22550FDF723FA02214DF22650FDF7F8
:104730001EFACF214DF22750FDF719FA02214DF252
:104740002850FDF714FADE214DF22950FDF70FFA3B
:1047500002214DF22A50FDF70AFAF2214DF22B50B8
:10476000FDF705FA02214DF22C50FDF700FAFE216B
:104770004DF22D50FDF7FBF903214DF22E50FDF7C0
:10478000F6F910214DF22F50FDF7F1F903214DF20A
:104790003050FDF7ECF933214DF23150FDF7E7F9D8
:1047A00003214DF23250FDF7E2F96D214DF2335005
:1047B000FDF7DDF900214FF45640FDF7D8F933211C
:1047C0004DF20160FDF7D3F900214DF20260FDF7D3
:1047D000CEF934214DF20360FDF7C9F900214DF205
:1047E0000460FDF7C4F93A214DF20560FDF7BFF909
:1047F00000214DF20660FDF7BAF94A214DF207603B
:10480000FDF7B5F900214DF20860FDF7B0F95C2124
:104810004DF20960FDF7ABF900214DF20A60FDF79A
:10482000A6F981214DF20B60FDF7A1F900214DF2AF
:104830000C60FDF79CF9A6214DF20D60FDF797F98C
:1048400000214DF20E60FDF792F9E5214DF20F6067
:10485000FDF78DF901214DF21060FDF788F9132164
:104860004DF21160FDF783F901214DF21260FDF761
:104870007EF954214DF21360FDF779F901214DF2D3
:104880001460FDF774F982214DF21560FDF76FF9A0
:1048900001214DF21660FDF76AF9CA214DF2176049
:1048A000FDF765F902214DF21860FDF760F900216E
:1048B0004DF21960FDF75BF902214DF21A60FDF728
:1048C00056F901214DF21B60FDF751F902214DF21D
:1048D0001C60FDF74CF934214DF21D60FDF747F9DE
:1048E00002214DF21E60FDF742F967214DF21F6073
:1048F000FDF73DF902214DF22060FDF738F98421E2
:104900004DF22160FDF733F902214DF22260FDF7EF
:104910002EF9A4214DF22360FDF729F902214DF271
:104920002460FDF724F9B7214DF22560FDF71FF94A
:1049300002214DF22660FDF71AF9CF214DF22760D2
:10494000FDF715F902214DF22860FDF710F9DE217F
:104950004DF22960FDF70BF902214DF22A60FDF7B7
:1049600006F9F2214DF22B60FDF701F902214DF21B
:104970002C60FDF7FCF8FE214DF22D60FDF7F7F8F5
:1049800003214DF22E60FDF7F2F810214DF22F6059
:10499000FDF7EDF803214DF23060FDF7E8F8332123
:1049A0004DF23160FDF7E3F803214DF23260FDF77F
:1049B000DEF86D214DF23360FDF7D9F855214FF443
:1049C0007040FDF7D4F8AA214FF20100FDF7CFF8AF
:1049D00052214FF20200FDF7CAF808214FF20300FE
:1049E000FDF7C5F800214FF20400FDF7C0F8CC2117
:1049F0004FF43140FDF7BBF800214BF20110FDF7F9
:104A0000B6F805214FF43640FDF7B1F870214FF4A8
:104A10003740FDF7ACF870214BF20170FDF7A7F8B5
:104A200001214FF43840FDF7A2F803214BF60100B5
:104A3000FDF79DF803214BF60200FDF798F80321DE
:104A40004BF60300FDF793F802214FF43C40FDF7CD
:104A50008EF800214BF60140FDF789F800214BF656
:104A60000240FDF784F8D0214FF44940FDF77FF86C
:104A700002214CF60110FDF77AF850214CF6021095
:104A8000FDF775F850214CF60310FDF770F8502132
:104A90004CF60410FDF76BF800214FF45450FDF76D
:104AA00066F855214FF46850FDF761F84FF48850CF
:104AB000FDF752F8782002F06AFD4FF42450FDF71C
:104AC0004BF801F060B9FE48808849F225318842F0
:104AD0007ED147F6F001E520FDF749F84FF48071EB
:104AE0000120FDF744F84FF4E0610220FDF73FF8A4
:104AF00041F230010320FDF73AF800210420FDF7D0
:104B000036F840F202210820FDF731F80021092093
:104B1000FDF72DF800210A20FDF729F800210C20CF
:104B2000FDF725F800210D20FDF721F800210F20C9
:104B3000FDF71DF800211020FDF719F807211120BD
:104B4000FDF715F800211220FDF711F800211320C0
:104B5000FDF70DF800210720FDF709F841F29061FB
:104B60001020FDF704F840F227211120FCF7FFFF89
:104B70009D211220FCF7FBFF4FF4C8511320FCF7D6
:104B8000F6FF25212920FCF7F2FF0D212B20FCF751
:104B9000EEFF07213020FCF7EAFF40F2033131201D
:104BA000FCF7E5FF03213220FCF7E1FF40F206218C
:104BB0003520FCF7DCFF08213620FCF7D8FF40F257
:104BC00006413720FCF7D3FF4FF44171382000E055
:104BD00057E0FCF7CCFF07213920FCF7C8FF40F273
:104BE00002613C20FCF7C3FF08213D20FCF7BFFF1A
:104BF00000215020FCF7BBFFEF215120FCF7B7FF4D
:104C000000215220FCF7B3FF40F23F115320FCF784
:104C1000AEFF4FF427416020FCF7A9FF012161207E
:104C2000FCF7A5FF00216A20FCF7A1FF00218020EE
:104C3000FCF79DFF00218120FCF799FF00218220D5
:104C4000FCF795FF00218320FCF791FF00218420D1
:104C5000FCF78DFF00218520FCF789FF10219020B3
:104C6000FCF785FF4FF4C0619220FCF780FF40F213
:104C700033110720FCF77BFF22210020FCF777FF90
:104C80001FE78F48808849F2283188427ED141F25F
:104C90008F01EC20FCF76BFF41F23421EF20FCF791
:104CA00066FF4FF480710120FCF761FF4FF4E06173
:104CB0000220FCF75CFF41F230010320FCF757FFB4
:104CC00000210420FCF753FF40F202210820FCF7EA
:104CD0004EFF00210920FCF74AFF00210A20FCF7C3
:104CE00046FF01210C20FCF742FF00210D20FCF7BC
:104CF0003EFF00210F20FCF73AFF00211020FCF7B7
:104D000036FF07211120FCF732FF00211220FCF7AB
:104D10002EFF00211320FCF72AFF01210720FCF7BA
:104D200026FF322002F057FC41F290411020FCF7A0
:104D30001EFF40F227211120FCF719FF322002F05C
:104D40004AFC8A211220FCF712FF322002F043FCB9
:104D50004FF4D0511320FCF70AFF06212920FCF75D
:104D600006FF0D212B20FCF702FF322002F033FC5E
:104D700000212020FCF7FBFE00212120FCF7F7FE9C
:104D8000322002F028FC0021302000E074E0FCF723
:104D9000EEFE40F204613120FCF7E9FE40F20531FD
:104DA0003220FCF7E4FE00213520FCF7E0FE40F65F
:104DB00009413620FCF7DBFE4FF401713720FCF788
:104DC000D6FE40F201313820FCF7D1FE40F20771E7
:104DD0003920FCF7CCFE00213C20FCF7C8FE40F651
:104DE0000A213D20FCF7C3FE322002F0F4FB002133
:104DF0005020FCF7BCFEEF215120FCF7B8FE00214B
:104E00005220FCF7B4FE40F23F115320FCF7AFFEF6
:104E10004FF427416020FCF7AAFE01216120FCF736
:104E2000A6FE00216A20FCF7A2FE00218020FCF7EC
:104E30009EFE00218120FCF79AFE00218220FCF7D3
:104E400096FE00218320FCF792FE00218420FCF7CF
:104E50008EFE00218520FCF78AFE10219020FCF7B1
:104E600086FE4FF4C0619220FCF781FE40F23311C0
:104E70000720FCF77CFE24E61148808849F22031A7
:104E800088427DD100210846FCF771FE4FF4807105
:104E90000120FCF76CFE4FF4E0610220FCF767FE96
:104EA00041F230010320FCF762FE00210420FCF7F0
:104EB0005EFE40F202210820FCF759FE002101E0CD
:104EC000A21700200920FCF752FE00210A20FCF75F
:104ED0004EFE01210C20FCF74AFE00210D20FCF7BC
:104EE00046FE00210F20FCF742FE322002F073FB49
:104EF00040F201110720FCF73AFE322002F06BFB72
:104F00004FF486511020FCF732FE07211120FCF7E8
:104F10002EFE4FF488711220FCF729FE4FF4306109
:104F20001320FCF724FE00212920FCF720FE44F288
:104F300010012B20FCF71BFE00215020FCF717FE70
:104F4000EF215120FCF713FE00215220FCF70FFE49
:104F500040F23F115320FCF70AFE4FF41C51602031
:104F6000FCF705FE01216120FCF701FE00216A200B
:104F7000FCF7FDFD00218020FCF7F9FD002100E099
:104F800031E08120FCF7F3FD00218220FCF7EFFDEA
:104F900000218320FCF7EBFD00218420FCF7E7FDD6
:104FA00000218520FCF7E3FD10219020FCF7DFFDB8
:104FB00000219220FCF7DBFD01219320FCF7D7FDB7
:104FC0004FF488719520FCF7D2FD00219720FCF763
:104FD000CEFD00219820FCF7CAFD40F27311072096
:104FE000FCF7C5FD6DE5FE48808849F23131884205
:104FF0007DD141F21401E720FCF7B9FD4FF4807137
:105000000120FCF7B4FD4FF400710220FCF7AFFD66
:1050100041F238010320FCF7AAFD40F202210820EA
:10502000FCF7A5FD00210920FCF7A1FD00210A20C5
:10503000FCF79DFD00210C20FCF799FD00210D20BF
:10504000FCF795FD00210F20FCF791FD00211020B9
:10505000FCF78DFD07211120FCF789FD00211220AE
:10506000FCF785FD00211320FCF781FDC82002F02C
:10507000B2FA41F290611020FCF779FD40F227214D
:105080001120FCF774FD322002F0A5FA0C21122049
:10509000FCF76DFD322002F09EFA4FF40061132000
:1050A000FCF765FD11212920FCF761FD0B212B2068
:1050B000FCF75DFD322002F08EFA00212020FCF783
:1050C00056FD40F23F112120FCF751FD0021302018
:1050D000FCF74DFD4FF483713120FCF748FD0021B2
:1050E0003220FCF744FD4FF40171352000E064E00C
:1050F000FCF73DFD41F20A613620FCF738FD40F235
:1051000007713720FCF733FD4FF483713820FCF72B
:105110002EFD40F207713920FCF729FD40F20241D3
:105120003C20FCF724FD40F60F413D20FCF71FFD1D
:1051300000215020FCF71BFDEF215120FCF717FD4B
:1051400000215220FCF713FD40F23F115320FCF7E1
:105150000EFD4FF41C516020FCF709FD0121612078
:10516000FCF705FD00216A20FCF701FD00218020ED
:10517000FCF7FDFC00218120FCF7F9FC00218220D6
:10518000FCF7F5FC00218320FCF7F1FC00218420D2
:10519000FCF7EDFC00218520FCF7E9FC10219020B4
:1051A000FCF7E5FC4FF4C0619220FCF7E0FC40F214
:1051B00033110720FCF7DBFC83E48948808845F243
:1051C000084188427ED14FF480710120FCF7CFFC6A
:1051D0004FF4E0610220FCF7CAFC41F230010320E9
:1051E000FCF7C5FC00210420FCF7C1FC40F20721BC
:1051F0000820FCF7BCFC00210920FCF7B8FC0021CA
:105200000A20FCF7B4FC00210C20FCF7B0FC0021C4
:105210000D20FCF7ACFC00210F20FCF7A8FC1420AB
:1052200002F0D9F941F2B0611020FCF7A0FC012195
:105230001120FCF79CFC01211720FCF798FC4FF48F
:105240009C711220FCF793FC4FF400611320FCF7D3
:105250008EFC09212920FCF78AFC09212A20FCF771
:1052600086FC0021A420FCF782FC00215020FCF7E2
:105270007EFCEF215120FCF77AFC00215220FCF744
:1052800076FC40F23F115320FCF771FC4FF41C51A7
:105290006020FCF76CFC01216120FCF768FC002118
:1052A0006A20FCF764FC00218020FCF760FC0021F0
:1052B0008120FCF75CFC00218220FCF758FC0021D7
:1052C000832000E023E0FCF752FC00218420FCF75F
:1052D0004EFC00218520FCF74AFC13219020FCF7AE
:1052E00046FC00219220FCF742FC03219320FCF7AE
:1052F0003EFC4FF488719520FCF739FC40F27311A5
:105300000720FCF734FC322002F065F9B8E4344899
:10531000808841F2055188427ED100210720FCF7A8
:1053200026FC322002F057F94FF48E711220FCF760
:105330001EFC0121A420FCF71AFC0F210820FCF719
:1053400016FC08210A20FCF712FC08210D20FCF7AE
:105350000EFC40F207713020FCF709FC07213120D8
:10536000FCF705FC40F203613220FCF700FC4FF42F
:10537000E0613320FCF7FBFB40F202213420FCF714
:10538000F6FB02213520FCF7F2FB41F60F713620C7
:10539000FCF7EDFB40F207713720FCF7E8FB00213A
:1053A0003820FCF7E4FB00213920FCF7E0FB40F259
:1053B00007713A20FCF7DBFB00213B20FCF7D7FB11
:1053C00007213C20FCF7D3FB00213D20FCF7CFFB5D
:1053D000322002F000F901210720FCF7C8FB01E0B0
:1053E000A217002001211720FCF7C1FB322002F098
:1053F000F2F84FF4BD511020FCF7B9FB40F2172131
:105400001120FCF7B4FB4FF48F711220FCF7AFFBB7
:105410004FF47061132000E097E0FCF7A8FB002137
:105420002A20FCF7A4FB0A212920FCF7A0FB4FF45B
:105430009F711220FCF79BFB00215020FCF797FB8B
:10544000EF215120FCF793FB00215220FCF78FFB4A
:1054500040F23F115320FCF78AFB4FF41C516020AF
:10546000FCF785FB01216120FCF781FB00216A200C
:10547000FCF77DFB00218020FCF779FB00218120D7
:10548000FCF775FB00218220FCF771FB00218320D3
:10549000FCF76DFB00218420FCF769FB00218520CF
:1054A000FCF765FB13219020FCF761FB4FF4407182
:1054B0009220FCF75CFB05219320FCF758FB0021B0
:1054C0009520FCF754FB00219720FCF750FB0021AE
:1054D0009820FCF74CFB4FF480710120FCF747FB50
:1054E0004FF4E0610220FCF742FB41F23801032057
:1054F000FCF73DFB00210420FCF739FB00210C20C8
:10550000FCF735FB00210F20FCF731FB00212020A8
:10551000FCF72DFB00212120FCF729FB212107208E
:10552000FCF725FB142002F056F861210720FCF758
:105530001EFB142002F04FF840F273110720FCF715
:1055400016FB142002F047F895E4FE4880884BF2E1
:10555000055188427ED100210846FCF708FB002156
:105560000846FCF704FB00210846FCF700FB00217D
:105570000846FCF7FCFA0121A420FCF7F8FA1420F5
:1055800002F029F84FF41C516020FCF7F0FA40F2C9
:1055900002210820FCF7EBFA4FF405713020FCF7EC
:1055A000E6FA43F215713120FCF7E1FA40F20461AA
:1055B0003220FCF7DCFA40F616613320FCF7D7FA0C
:1055C00042F211213420FCF7D2FA4FF4A8513520D1
:1055D000FCF7CDFA48F207513620FCF7C8FA41F241
:1055E00007413720FCF7C3FA41F203413820FCF7AA
:1055F000BEFA20213920FCF7BAFA1A219020FCF7D4
:10560000B6FA00211020FCF7B2FA07211120FCF7AE
:10561000AEFA00211220FCF7AAFA00211320FCF7B1
:10562000A6FA142001F0D7FF4FF4E6611020FCF732
:105630009EFA40F237111120FCF799FA142001F07C
:10564000CAFF4FF4DC711220FCF791FA142001F02C
:10565000C2FF00E083E04FF470611320FCF787FA8B
:1056600080212A20FCF783FA48212920FCF77FFAC1
:10567000142001F0B0FF4FF480710120FCF777FA9D
:105680004FF4E0610220FCF772FA41F23801032086
:10569000FCF76DFA40F202210820FCF768FA0021BD
:1056A0000A20FCF764FA00210C20FCF760FA0021C4
:1056B0000D20FCF75CFA30210E20FCF758FA00218F
:1056C0005020FCF754FAEF215120FCF750FA00214A
:1056D0005220FCF74CFA40F23F115320FCF747FAF6
:1056E0004FF41C516020FCF742FA01216120FCF7C5
:1056F0003EFA00216A20FCF73AFA11219020FCF7CB
:1057000036FA4FF4C0619220FCF731FA40F20241C0
:105710009320FCF72CFA02219420FCF728FA14209D
:1057200001F059FF01210720FCF721FA142001F0B4
:1057300052FF61210720FCF71AFA40F2731107208B
:10574000FCF715FA00212020FCF711FA0021212096
:10575000FCF70DFA22210020FCF709FA13E379483F
:1057600080884CF2055188427ED100210846FCF722
:10577000FEF900210846FCF7FAF9142001F02BFF8E
:1057800000210846FCF7F3F900210846FCF7EFF981
:1057900000210846FCF7EBF900210846FCF7E7F981
:1057A0000121A420FCF7E3F9142001F014FF4FF4C9
:1057B0001C516020FCF7DBF940F606010820FCF7DD
:1057C000D6F940F203713020FCF7D1F901213120E4
:1057D000FCF7CDF904213220FCF7C9F94FF48171AF
:1057E0003320FCF7C4F94FF440713420FCF7BFF9C3
:1057F00040F203113520FCF7BAF91F213620FCF7DF
:10580000B6F940F203713720FCF7B1F901213820D5
:10581000FCF7ADF904213920FCF7A9F915219020F6
:10582000FCF7A5F94FF482611020FCF7A0F940F2D3
:1058300047211120FCF79BF94FF4DE711220FCF791
:1058400096F94FF460611320FCF791F9782001F08C
:10585000C2FE4FF480710120FCF789F94FF400710A
:105860000220FCF784F900E050E041F2300103200F
:10587000FCF77DF908210A20FCF779F900210C20BA
:10588000FCF775F920210E20FCF771F900210F209B
:10589000FCF76DF900212020FCF769F90021212097
:1058A000FCF765F93D212A20FCF761F9142001F08D
:1058B00092FE2D212920FCF75AF900215020FCF7F7
:1058C00056F94DF2EF015120FCF751F90021522019
:1058D000FCF74DF940F23F115320FCF748F9002145
:1058E0006120FCF744F900216A20FCF740F94FF4ED
:1058F00040719220FCF73BF905219320FCF737F922
:105900004FF480710720FCF732F93CE20D488088A3
:1059100048F6891188427DD101210020FCF727F942
:105920004AF6A4010320FCF722F900210C20FCF721
:105930001EF940F60C010D20FCF719F94FF42C511B
:105940000E2001E0A2170020FCF711F9B0211E2063
:10595000FCF70DF942F63F310120FCF708F94FF44E
:10596000C0610220FCF703F900211020FCF7FFF8CA
:1059700046F278011120FCF7FAF800210520FCF727
:10598000F6F800210620FCF7F2F84EF61C711620FE
:10599000FCF7EDF803211720FCF7E9F840F233217A
:1059A0000720FCF7E4F800210B20FCF7E0F80021C9
:1059B0000F20FCF7DCF800214120FCF7D8F800218B
:1059C0004220FCF7D4F800214820FCF7D0F840F240
:1059D0003F114920FCF7CBF800214A20FCF7C7F81B
:1059E00000214B20FCF7C3F84FF46F414420FCF733
:1059F000BEF800214520FCF7BAF840F23F114620DE
:105A0000FCF7B5F840F207713020FCF7B0F84FF41E
:105A1000017100E040E03120FCF7A9F84FF401717A
:105A20003220FCF7A4F840F202513320FCF79FF833
:105A300040F207513420FCF79AF84FF401713520F9
:105A4000FCF795F84FF401713620FCF790F840F21E
:105A500002513720FCF78BF840F202313A20FCF774
:105A600086F840F202313B20FCF781F80021232028
:105A7000FCF77DF800212420FCF779F84FF4004171
:105A80002520FCF774F800214F20FCF770F8002166
:105A90004E20FCF76CF876E1F748808844F23151EB
:105AA00088427DD101210020FCF761F80A2001F035
:105AB00092FD41F228611020FCF759F80E211220C6
:105AC000FCF755F840F639211320FCF750F80A206E
:105AD00001F081FD40211120FCF749F850211520EB
